:0300000002078470
:0C078400787FE4F6D8FD7581210207CBD8
:1000260046696E676572205072696E74204261730C
:10003600656420002020566F74696E6720537973BB
:1000460074656D2020202000423E205379746D2077
:100056004D6F646500433E204E6F726D616C204D9E
:100066006F6465004E6F726D616C204D6F64650044
:1000760053797374656D204D6F64650020202050A0
:1000860072657373203520005363616E2046696E76
:100096006765727072696E740046696E6765727024
:1000A60072696E74002020205363616E2000496ED1
:1000B60076616C696420557365722E2E2E0056612A
:1000C6006C6964205573657220310056616C6964F1
:1000D600205573657220320056616C696420557331
:1000E600657220330056616C696420557365722011
:1000F600340056616C69642055736572203500556D
:10010600736572203100506C6561736520476976AE
:100116006520566F746500557365722032005573FD
:10012600657220330055736572203400557365720D
:100136002035005761726E696E6700566F746520D0
:10014600476976656E005468616E6B20596F752E2F
:100156002E2E00566F74652052656769737465723A
:100166002E2E2E004461746120636C6561722E2E02
:100176002E0020566F7465722049442020312000DD
:10018600526567697374726174696F6E0052656750
:1001960069737465722E2E2E0020566F7465722058
:1001A6004944202032200020566F7465722049444D
:1001B600202033200020566F746572204944202089
:1001C60034200020566F7465722049442020350083
:1001D6002020546F74616C20436F756E7400413A31
:1001E600200020423A200020433A200057696E6ED4
:1001F60065723A2D200041204220430041202620EE
:100206004200204120262043002042202620430091
:09021600204100204300204200B9
:10093E00C101C102C103C105C106C107C108C10978
:10094E00C10AC10BC104C100020A00000208000066
:0C095E00020C0000020E0000021000005D
:10088E00C2B47F647E001208B7D2B47F647E0012B9
:10089E0008B7120A06E5992430F5127F8F12000B65
:0908AE00AF121209EA7FE87E0393
:1008B700E4FDFCC3ED9FEC9E5015E4FBFA0BBB0077
:1008C700010AEB64784A70F50DBD00010C80E4EF76
:0108D70022FE
:08000300C282D281D2807F018C
:10000B00C2B78FA0D2B67F027E001208B7C2B6224B
:0709E3007F8F12000B7F2043
:1009EA00D2B78FA0D2B67F027E001208B7C2B62253
:0B08D8007FC012000B7BFF7A01790C3F
:0608E3008B138A14891535
:1008E900E4F516F517AB13AA14A915851782851611
:1008F9008312096BFF600D1209EA0517E51770E508
:04090900051680E16E
:01090D0022C7
:10090E007F0112000B7F0A7E001208B77F061200CD
:10091E000B7F0A7E001208B77F0C12000B7F0A7E37
:10092E00001208B77F3812000B7F0A7E000208B74C
:0C09FA00758920759850758DFDD28E22F5
:08001B008F993099FDC2992272
:080A06003098FDC298AF99225F
:0609BF008B188A19891A49
:1009C500E4FDFCAB18AA19A91A8D828C8312096B58
:0D09D500FF600A12001B0DBD00010C80E642
:0109E20022F2
:03002300020A0EC0
:060A0E00859912C2983226
:10065400E4F5807590FF12090E1209FA7F801200EA
:100664000B7BFF7A0079261208E37FC012000B7B14
:10067400FF7A00793A1208E31208B3D281C280C229
:10068400827F0112000B7BFF7A00794E1208E37F10
:10069400C012000B7BFF7A00795B1208E3309703EA
:1006A4002096FA209718E4F50AF50BF50875090168
:1006B4007F0112000B7BFF7A00796A1208E320960F
:1006C4001C750A00750B01E4F508F5097F01120099
:1006D4000B7BFF7A0079761208E312021FD281C2E3
:1006E40080D2821208B3C2821204FD3004FA1206C8
:0306F400F780F597
:1004FD007F0112000B7BFF7A0079821208E37FC027
:10050D0012000B7BFF7A00798E1208E330940E20D7
:10051D0095FA2096F72097F41203A180EF7F011230
:10052D00000B7BFF7A00799F1208E37FC012000B4E
:10053D007BFF7A0079AB1208E3C2B27F647E0012B2
:10054D0008B7D2B27F647E001208B7120A06E59989
:10055D002430F5127F8C12000BAF121209EAE5124E
:10056D00B42F167F0112000B7BFF7A0079B41208AD
:10057D00E3C281D280C204D200E512643070217FC3
:10058D000112000B7BFF7A0079C41208E3D281C2FD
:10059D0080D204C200200102D20130070312099853
:1005AD00E512643170217F0112000B7BFF7A007917
:1005BD00D11208E3D281C280D204C200200202D23D
:1005CD0002300803120998E512643270217F01127E
:1005DD00000B7BFF7A0079DE1208E3D281C280D254
:1005ED0004C200200302D203300903120998E51258
:1005FD00643370217F0112000B7BFF7A0079EB12BF
:10060D0008E3D281C280D204C200200502D2053097
:10061D000A03120998E512643470217F0112000B50
:10062D007BFF7A0079F81208E3D281C280D204C22E
:10063D0000200602D206300B031209981208B3D21D
:07064D00821208B3C28222F1
:1006F7003001192007167F0112000B7BFF7A017961
:10070700051208E31208D8120810D2073002192080
:1007170008167F0112000B7BFF7A01791D1208E38F
:100727001208D8120810D2083003192009167F01C1
:1007370012000B7BFF7A0179241208E31208D81202
:100747000810D209300519200A167F0112000B7B09
:10075700FF7A01792B1208E31208D8120810D20A7F
:10076700300619200B167F0112000B7BFF7A0179E7
:0D077700321208E31208D8120810D20B222B
:100998007F0112000B7BFF7A0179391208E37FC0CF
:1009A80012000B7BFF7A0179411208E31208B3D2D7
:0709B800821208B3C2822283
:10081000E4FFFEEF4E704120901230910F30920CA9
:10082000050DE50D7002050C7E007F013090122051
:10083000910F30920C050FE50F7002050E7E007FC0
:10084000013090CF3091CC2092C90511E511700292
:1008500005107E007F0180BB7F0112000B7BFF7AB9
:1008600001794C1208E37FC012000B7BFF7A0179FB
:10087000591208E3D282D281C2807F207E031208FF
:0E088000B7C282D281D2807FD07E070208B735
:10021F007F0112000B7BFF7A01796A1208E3D28209
:10022F00D281C280C2B37F647E001208B7D2B37F7F
:10023F00D07E071208B7C282D281D280120A067FFF
:10024F000112000B7BFF7A0179781208E37FC0124D
:10025F00000B7BFF7A0179861208E3E512643060A8
:10026F000B1209E32095F412088E80EF7F01120024
:10027F000B7BFF7A0179931208E3D282D281C2807D
:10028F001208B31200037BFF7A01799F1208E37FF4
:10029F00C012000B7BFF7A0179861208E3E5126426
:1002AF0031600B1209E32095F412088E80EF7F0165
:1002BF0012000B7BFF7A0179931208E3D282D2816D
:1002CF00C2801208B31200037BFF7A0179AD1208C6
:1002DF00E37FC012000B7BFF7A0179861208E3E5FA
:1002EF00126432600B1209E32095F412088E80EF2E
:1002FF007F0112000B7BFF7A0179931208E3D28200
:10030F00D281C2801208B31200037BFF7A0179BB3E
:10031F001208E37FC012000B7BFF7A017986120867
:10032F00E3E5126433600B1209E32095F412088E93
:10033F0080EF7F0112000B7BFF7A0179931208E3A4
:10034F00D282D281C2801208B31200037BFF7A01DE
:10035F0079C91208E37FC012000B7BFF7A017986FF
:10036F001208E3E5126434600B1209E32095F412CE
:10037F00088E80EF7F0112000B7BFF7A01799312B9
:10038F0008E3D282D281C2801208B3C282D281D254
:02039F008022BA
:1003A100D282D281C2801208B31200037BFF7A018C
:1003B10079D61208E37FC012000B7BFF7A0179E442
:1003C1001208E3E50D2430FF1209EA7BFF7A017977
:1003D100E81208E3E50F2430FF1209EA7BFF7A01F6
:1003E10079ED1208E3E5112430FF1209EA7FB87EA6
:1003F1000B1208B7D282D281C2801208B3C282D254
:1004010081C2807F0112000B7BFF7A0179F2120811
:10041100E3E50DB50F18E50CB50E13E50FB5110E9B
:10042100E50EB510097BFF7A0179FC0204F8E50DB0
:10043100B50F25E50CB50E20E50F450E601AD3E585
:100441000D9511E5106480F8E50C64809840097BF6
:10045100FF7A0279020204F8E50DB51124E50CB525
:10046100101FE51145106019D3E50D950FE50E64D8
:1004710080F8E50C64809840087BFF7A0279088057
:1004810076E511B50F24E510B50E1FE50F450E6099
:1004910019D3E50F950DE50C6480F8E50E6480989D
:1004A10040087BFF7A02790F804DD3E50D950FE56A
:1004B1000E6480F8E50C648098401FD3E50D95111A
:1004C100E5106480F8E50C6480987BFF40067A02B1
:1004D100791680237A027919801DD3E50F9511E5EC
:1004E100106480F8E50E6480987BFF40067A0279FB
:0C04F1001C80047A0279191208E380FED6
:10079000020654E493A3F8E493A34003F68001F225
:1007A00008DFF48029E493A3F85407240CC8C3336A
:1007B000C4540F4420C8834004F456800146F6DF39
:1007C000E4800B010204081020408090093EE47E82
:1007D000019360BCA3FF543F30E509541FFEE4932E
:1007E000A360010ECF54C025E060A840B8E493A3F5
:1007F000FAE493A3F8E493A3C8C582C8CAC583CA20
:10080000F0A3C8C582C8CAC583CADFE9DEE780BED7
:01096A00008C
:10096B00BB010CE58229F582E5833AF583E0225041
:10097B0006E92582F8E622BBFE06E92582F8E2228B
:0D098B00E58229F582E5833AF583E49322A5
:00000001FF
